:020000040800F2
:10000000580A0020A1010008B5150008D9120008FF
:10001000B1150008AD020008E91B0008000000004F
:10002000000000000000000000000000B9150008FA
:10003000B102000800000000B7150008BB15000859
:10004000BB010008BB010008BB010008BB010008A0
:10005000BB010008BB010008BB010008BB01000890
:10006000BB010008BB010008BB010008BB01000880
:10007000BB010008BB010008BB010008BB01000870
:10008000BB010008BB010008BB010008BB01000860
:10009000BB010008BB010008BB010008BB01000850
:1000A000BB010008BB010008BB010008BB01000840
:1000B000BB010008BB010008BB010008BB01000830
:1000C000BB010008BB010008BB010008BB01000820
:1000D000BB010008BB010008BB010008BB01000810
:1000E000BB010008BB010008BB010008BB01000800
:1000F000BB010008BB010008BB010008BB010008F0
:10010000BB010008BB010008BB010008BB010008DF
:10011000BB010008BB01000895160008A9160008DD
:10012000BB010008BB010008BB010008BB010008BF
:10013000BB010008BB010008BB010008BB010008AF
:10014000BB010008BB010008BB010008BB0100089F
:10015000BB010008BB010008BB010008BB0100088F
:10016000BB010008BB010008BB010008BB0100087F
:10017000BB010008BB010008BB0100080000000033
:10018000BB010008BB010008DFF810D000F07CF8CC
:1001900000480047D91C0008AFF30080580A00202F
:1001A0000648804706480047FEE7FEE7FEE7FEE711
:1001B000FEE7FEE7FEE7FEE7FEE7FEE7791600084A
:1001C000890100082DE9F05F0546002092469B4614
:1001D00088460646814640241BE02846414647465D
:1001E000224600F041F853465A46C01A914110D3B6
:1001F00011461846224600F028F82D1A67EB010830
:100200004F4622460120002100F01FF817EB00099D
:100210004E41201EA4F10104DFDC484631462A4647
:100220004346BDE8F09FD2B201E000F8012B491E21
:10023000FBD270470022F6E710B513460A46044683
:100240001946FFF7F0FF204610BD202A04DB203AB4
:1002500000FA02F1002070479140C2F1200320FA19
:1002600003F3194390407047202A04DB203A21FA17
:1002700002F00021704721FA02F3D040C2F12002BF
:100280009140084319467047064C074D06E0E06868
:1002900040F0010394E8070098471034AC42F6D3CD
:1002A000FFF776FF502600087026000800BFFEE723
:1002B00070477047F8B502460B4600250024002021
:1002C0000021DCE0012606FA01F51E6806EA0504B5
:1002D000AC4273D15E68012E08D05E68022E05D054
:1002E0005E68112E02D05E68122E13D190684F0006
:1002F0000326BE40B0434F00DE68BE4030439060EE
:10030000506801268E40B0431E79C6F300168E4019
:1003100030435060D0684F000326BE40B0434F00CA
:100320009E68BE403043D0605E68022E02D05E6898
:10033000122E13D1CF0802F1200656F827004E07DF
:10034000F70E0F26BE40B0434F07FF0E1E69BE409A
:100350003043CF0802F1200646F8270010684F000E
:100360000326BE40B0431E7906F003064F00BE4090
:10037000304310605E6806F08056B6F1805F7DD134
:1003800000BF00260096404E366846F480463E4F39
:100390003E603E46366806F48046009600BF00BFC9
:1003A0003A4E8F0856F827008E07370F0F26BE40AB
:1003B000B043374EB24202D1002624E05EE0354E13
:1003C000B24201D101261EE0334EB24201D10226D3
:1003D00019E0324EB24201D1032614E0304EB2424F
:1003E00001D104260FE02F4EB24201D105260AE0CA
:1003F0002D4EB24201D1062605E02C4EB24201D16B
:10040000072600E008268F073F0FBE4030431F4EEF
:100410008F0846F82700264E3068A0435E6806F431
:100420008036B6F5803F00D12043214E3060361D26
:100430003068A0435E6806F40036B6F5003F00D190
:1004400020431B4E361D3060361D3068A0435E6869
:1004500006F48016B6F5801F00D12043144E0836EE
:100460003060361D3068A0435E6806F40016B6F5AD
:10047000001F00D120430E4E0C363060491C10295D
:10048000FFF420AFF8BD00004438024008380140B6
:10049000000002400004024000080240000C02403C
:1004A000001002400014024000180240001C0240EC
:1004B000003C0140024613690B400BB1012000E0F3
:1004C0000020704701480068704700004C00002081
:1004D00003480068034909780844014908607047E7
:1004E0004C0000205400002010B50D48006840F476
:1004F00000700B4908600846006840F4806008609E
:100500000846006840F480700860032000F0A2F8FC
:10051000002000F007F800F02BF8002010BD0000CC
:10052000003C024070B504460E4800784FF47A71E2
:10053000B1FBF0F00C490968B1FBF0F5284600F07A
:1005400021FC08B1012070BD102C07D200222146E9
:10055000501E00F041F80548046001E00120F2E778
:100560000020F0E75400002014000020500000207C
:1005700008B500BF002000900E48006840F480409D
:100580000C4908600846006800F48040009000BFF5
:1005900000BF00BF00200090081F006840F080509E
:1005A000091F08600846006800F08050009000BFF6
:1005B00000BF08BD4438024001460846002809DB58
:1005C00000F01F0301229A4043099B0003F1E0233E
:1005D000C3F8002100BF70472DE9F05F80460D464B
:1005E0001646002701F00AFB074639462A463346DD
:1005F00001F00700C0F1070ABAF1040F02D94FF069
:10060000040A01E0C0F1070AD14600F1040ABAF178
:10061000070F02D24FF0000A01E0A0F1030AD4460E
:100620004FF0010A0AFA09FAAAF1010A0AEA020AD3
:100630000AFA0CFA4FF0010B0BFA0CFBABF1010BB1
:100640000BEA030B4AEA0B042146404601F0DEFAAE
:10065000BDE8F09F00BF00F00702064B19684FF697
:10066000FF031940044B0B4343EA0221014B19607D
:1006700000BF70470CED00E00000FA0570B50446BD
:100680000D460CB9012070BD5848006800F00F00FD
:10069000A84209D255490D700846006800F00F00C5
:1006A000A84201D00120EEE7207800F002000228E5
:1006B0001DD1207800F00400042805D14C480068C2
:1006C00040F4E0504A490860207800F0080008280B
:1006D00005D14748006840F46040454908604448F7
:1006E000006820F0F000A1680843414908602078C4
:1006F00000F00100A8B36068012807D13C48083821
:100700000068C0F34040B8B90120BCE76068022827
:1007100002D06068032807D1354808380068C0F364
:10072000406048B90120AEE7314808380068C0F39E
:10073000400008B90120A6E72D48006820F003001A
:10074000616808432A490860FFF7BCFE064609E0D5
:10075000FFF7B8FE801B41F28831884202D903209E
:1007600091E707E02248006800F00C006168B0EBF8
:10077000810FEDD11D48006800F00F00A84209D993
:100780001A490D700846006800F00F00A84201D019
:10079000012078E7207800F00400042807D11448ED
:1007A000006820F4E050E1680843114908602078AF
:1007B00000F00800082808D10D48006820F46040C7
:1007C000216940EAC1000A49086000F03FF8084981
:1007D0000968C1F30311074A515CC8400649086023
:1007E00006480068FFF79EFE00204CE7003C0240F0
:1007F000083802403826000814000020500000206D
:1008000001480068704700001400002000B5FFF7A1
:10081000F7FF04490968C1F38221034A515CC840CB
:1008200000BD0000083802404826000800B5FFF768
:10083000E7FF04490968C1F34231034A515CC840EB
:1008400000BD000008380240482600082DE9F047A6
:10085000002400250026A1462548006800F00C0071
:1008600020B1042805D008283AD105E0DFF88490AB
:1008700039E0DFF8849036E01D48001F006800F082
:100880003F041B48001F006800F4800078B11A483C
:100890001749091F0968C1F38811A0FB01700146BF
:1008A000224600233846FFF78DFC05460EE011482E
:1008B0000F49091F0968C1F38811A0FB01700146A7
:1008C000224600233846FFF77DFC05460848001FF6
:1008D0000068C0F30140401C4600B5FBF6F902E099
:1008E000DFF8109000BF00BF4846BDE8F087000069
:1008F000083802400024F40000127A00F8B50446DB
:100900000CB90120F8BD207800F00100002874D057
:10091000F948006800F00C0004280DD0F648006883
:1009200000F00C00082813D1F348001F006800F401
:100930008000B0F5800F0BD1EF4808380068C0F395
:100940004040002859D06068002856D10120D9E7DE
:1009500000BF6068B0F5803F08D1E74808380068FC
:1009600040F48030E449083908601EE06068B0F562
:10097000A02F0DD1E0480838006840F48020DE49FF
:10098000083908600846006840F4803008600CE0D0
:10099000D9480838006820F48030D7490839086001
:1009A0000846006820F48020086000BF606890B1AD
:1009B000FFF788FD054606E0FFF784FD401B64282D
:1009C00001D903209EE7CC4808380068C0F34040B6
:1009D0000028F1D011E0FFF775FD054606E0FFF7AE
:1009E00071FD401B642801D903208BE7C2480838F9
:1009F0000068C0F340400028F1D1207800F00200E8
:100A000002285FD1BC48006800F00C0058B1BA4819
:100A1000006800F00C0008281CD1B748001F0068CF
:100A200000F48000B0B9B44808380068C0F3400052
:100A300020B1E068012801D0012063E7AE48083802
:100A4000006820F0F800216940EAC100AA4908398D
:100A5000086037E0E06800B30120A8490860FFF7AC
:100A600031FD054606E0FFF72DFD401B022801D9A8
:100A7000032047E7A04808380068C0F3400000287A
:100A8000F1D09D480838006820F0F800216940EA5C
:100A9000C10099490839086014E0002097490860AE
:100AA000FFF710FD054606E0FFF70CFD401B02288E
:100AB00001D9032026E7904808380068C0F34000B9
:100AC0000028F1D1207800F0080008282CD16069B6
:100AD000A8B101208A490860FFF7F4FC054606E04A
:100AE000FFF7F0FC401B022801D903200AE78248E7
:100AF0006C300068C0F340000028F1D014E0002002
:100B00007F490860FFF7DEFC054606E0FFF7DAFCE8
:100B1000401B022801D90320F4E677486C300068B6
:100B2000C0F340000028F1D1207800F00400042830
:100B300070D1002770483830006800F0805090B9BC
:100B400000BF002000906C483830006840F08050B2
:100B50006949383108600846006800F0805000900C
:100B600000BF00BF01276748006800F48070B0B97B
:100B70006448006840F4807062490860FFF7A2FC96
:100B8000054606E0FFF79EFC401B022801D9032022
:100B9000B8E65C48006800F480700028F2D000BF1E
:100BA000A068012808D154486830006840F001006E
:100BB0005149683108601DE0A06805280DD14E48F4
:100BC0006830006840F004004B496831086008460E
:100BD000006840F0010008600CE047486830006899
:100BE00020F001004449683108600846006820F0A0
:100BF0000400086000BFA068A8B1FFF763FC0546C9
:100C000009E0FFF75FFC401B41F28831884202D9BE
:100C1000032077E626E0384868300068C0F34000DB
:100C20000028EED013E0FFF74DFC054608E0FFF783
:100C300049FC401B41F28831884201D9032061E61A
:100C40002D4868300068C0F340000028EFD1012F24
:100C500007D129483830006820F0805026493831C3
:100C6000086000BFA069002845D02348006800F054
:100C70000C0008285DD0A069022845D100201F493A
:100C80000866FFF71FFC054606E0FFF71BFC401B4C
:100C9000022801D9032035E6174808380068C0F358
:100CA00040600028F1D1D4E907010843616A40EAB5
:100CB00081110122A06AC2EB500041EA00412C20C0
:100CC000005D41EA00600C49091F086001200B49E2
:100CD0000866FFF7F7FB054606E0FFF7F3FB401B4E
:100CE000022801D903200DE6034808380068C0F344
:100CF00040600028F1D03FE0083802400000474241
:100D0000800E47420070004000201C490866FFF733
:100D1000D9FB054606E0FFF7D5FB401B022801D9A9
:100D20000320EFE516480068C0F340600028F2D1C8
:100D300022E0A069012800D1E4E51148001D066801
:100D400006F48001E069814214D106F03F01206A77
:100D500081420FD147F6C0703040616A884209D1A4
:100D600006F44031A06A814204D106F07061E06A65
:100D7000814201D00120C5E50020C3E500004742C3
:100D80000038024070B504462546681EB0F1807FE9
:100D900001D301200FE0681E4FF0E02148610F21D0
:100DA0004FF0FF3000F032FF00204FF0E02188616B
:100DB00007200861002070BD7047704730B50246BB
:100DC0000B4600BF92F83C00012801D1022030BD43
:100DD000012082F83C0000BF022082F83D0010682C
:100DE00044681068816824F070041868044310682F
:100DF0004460184D1068A8421BD01068B0F1804FB5
:100E000017D0154D1068A84213D0144D1068A84291
:100E10000FD0134D1068A8420BD0124D1068A84295
:100E200007D0114D1068A84203D0104D1068A84299
:100E300005D121F0800158680143106881600120CC
:100E400082F83D0000BF002082F83C0000BF00BFD8
:100E5000BDE7000000000140000400400008004021
:100E6000000C004000040140004001400018004018
:100E700010B504460CB9012010BD94F83D0028B906
:100E8000002084F83C00204600F00CF8022084F892
:100E90003D00211D206800F011FC012084F83D0078
:100EA0000020E9E738B504461C492068884218D17B
:100EB00000BF002000901A48006840F01000184958
:100EC00008600846006800F01000009000BF00BFF6
:100ED000002211463620FFF77FFB3620FFF76CFB20
:100EE0001BE010492068884217D100BF0020009005
:100EF0000B48006840F02000094908600846006877
:100F000000F02000009000BF00BF002211463720F3
:100F1000FFF762FB3720FFF74FFB38BD00100040A2
:100F2000403802400014004001460868C06840F0A4
:100F300001000B68D8600868806800F00702062A84
:100F400005D00868006840F001000B6818600020B8
:100F50007047704710B5044620680069C0F3400030
:100F6000D8B12068C068C0F34000B0B16FF0020093
:100F700021680861012020772068806900F0030063
:100F800018B12046FFF7E5FF05E0204600F0ADF878
:100F9000204600F0ABF80020207720680069C0F3FD
:100FA0008000D8B12068C068C0F38000B0B16FF095
:100FB000040021680861022020772068806900F41D
:100FC000407018B12046FFF7C4FF05E0204600F04E
:100FD0008CF8204600F08AF800202077206800690D
:100FE000C0F3C000D8B12068C068C0F3C000B0B181
:100FF0006FF0080021680861042020772068C0692C
:1010000000F0030018B12046FFF7A3FF05E02046DB
:1010100000F06BF8204600F069F800202077206887
:101020000069C0F30010D8B12068C068C0F3001098
:10103000B0B16FF0100021680861082020772068A7
:10104000C06900F4407018B12046FFF782FF05E048
:10105000204600F04AF8204600F048F800202077AB
:101060002068006900F0010058B12068C06800F0F5
:10107000010030B16FF0010021680861204600F0E6
:1010800037F820680069C0F3C01058B12068C06804
:10109000C0F3C01030B16FF08000216808612046B5
:1010A000FFF78AFE20680069C0F3801058B12068FD
:1010B000C068C0F3801030B16FF040002168086153
:1010C000204600F01FF820680069C0F3401058B1B6
:1010D0002068C068C0F3401030B16FF02000216874
:1010E00008612046FFF769FE10BD70477047000099
:1010F00010B504460248844201D100F075F910BDD4
:10110000AC000020704710B504460CB9012010BD9A
:10111000A06900B100E000BF94F8390028B90020B0
:1011200084F83800204600F027F8242084F839009D
:101130002068C06820F400502168C860204600F094
:1011400029FB2068006920F490402168086120682C
:10115000406920F02A00216848612068C06840F496
:1011600000502168C8600020E063202084F8390026
:1011700084F83A000020CAE710B586B0044614216E
:1011800001A8FFF757F81B492068884230D100BFFB
:10119000002000901848006840F0100016490860D0
:1011A0000846006800F01000009000BF00BF00BFBC
:1011B0000020009010481438006840F001000E49EB
:1011C000143908600846006800F00100009000BF74
:1011D00000BF4FF4C06001900220029000200390F5
:1011E000032004900720059001A90448FFF762F846
:1011F00006B010BD0010014044380240000002401B
:101200002DE9F84304460D4616461F464FF00009E7
:1012100094F8390020285DD105B116B90120BDE848
:10122000F88300BF94F83800012801D10220F6E7C6
:10123000012084F8380000BF0020E063212084F8FA
:101240003900FFF73FF98146A684E68400BF0020FD
:1012500084F8380000BF2BE0E08C401EE084A068DA
:10126000B0F5805F16D14B460022802120460097C2
:1012700000F084FC08B10320D1E7A846B8F80000CC
:10128000C0F3080021684860206908B9AD1C0FE070
:101290006D1C0DE04B46002280212046009700F097
:1012A0006DFC08B10320BAE715F8010B216848600E
:1012B000E08C0028D0D14B460022402120460097E8
:1012C00000F05CFC08B10320A9E7202084F8390075
:1012D0000020A4E70220A2E700BFFEE700B587B028
:1012E00000BF002001901B48006840F00100194930
:1012F00008600846006800F00100019000BF00BFD0
:1013000000BF002001900846006840F0100008600F
:101310000846006800F01000019000BF00BF0120E7
:10132000029000200390022004900320059002A95F
:101330000948FEF7BFFF1C20029000200390012007
:1013400004900320059002A90448FEF7B3FF07B0FC
:1013500000BD000030380240000002400010024092
:1013600010B50446012C06D0022C07D0032C09D05E
:10137000042C0FD10AE000F08DFC0CE007A000F077
:1013800035FC08E006A000F031FC04E005A000F008
:101390002DFC00E000BF00BF10BD0000310A0000BE
:1013A000320A0000330A000010B5002412E00B4896
:1013B000005D0B49095D88420AD00848005D18B9F4
:1013C0000849085DFFF7CCFF0548005D0349085553
:1013D000601CC4B2042CEADB10BD00001000002029
:1013E000040000200800002010B510212548FFF758
:1013F00061F82549097840EA41002349087008212D
:101400002048FFF757F82049497840EA41001E4933
:10141000487004211B48FFF74DF81B49897840EAC2
:1014200041001949887001211848FFF743F808B9AD
:10143000012000E000201449C97840EA4100124927
:10144000C87000241BE01048005D50B9002010490E
:101450000855104850F82400001D0E4941F824009A
:101460000BE00948005DFF2803D101200849085519
:1014700003E00020074941F82400601CC4B2042C9A
:10148000E1DB10BD001002400C0000200000024013
:10149000040000205C00002008B500BF0020009080
:1014A0000E48006840F080000C490860084600685B
:1014B00000F08000009000BF00BF00BF002000903F
:1014C0000846006840F0010008600846006800F027
:1014D0000100009000BF00BF08BD0000303802408E
:1014E0001CB50020009001900E480F490860532061
:1014F000486000210C48816040F2E731C160002162
:101500008161FFF7B5FC08B1FEF7D3FE0020009023
:10151000019069460448FFF751FC08B1FEF7C9FE87
:101520001CBD0000001000406C0000201CB5002015
:10153000009001900E480F49086053204860002138
:101540000C48816040F2E731C16000218161FFF702
:101550008FFC08B1FEF7ADFE0020009001906946B7
:101560000448FFF72BFC08B1FEF7A3FE1CBD0000EA
:1015700000140040AC00002010B50B480B49086077
:101580004FF4E1304860002108488160C16001618A
:101590000C21416100218161C161FFF7B4FD08B1F7
:1015A000FEF787FE10BD000000100140EC00002097
:1015B00000BFFEE770477047704710B5FEF788FF21
:1015C00010BD000000B593B0302107A8FEF732FE31
:1015D000142102A8FEF72EFE00BF0020019024482F
:1015E000006840F08050224908600846006800F01A
:1015F0008050019000BF00BF00BF002001901D4837
:10160000006840F480401B4908600846006800F408
:101610008040019000BF00BF0120079000040890A7
:1016200002200D9041050E9104210F91A8211091E7
:10163000022111910421129107A8FFF75FF908B167
:10164000FEF737FE0F200290022003900020049046
:101650004FF4A05005904FF480500690052102A849
:10166000FFF70CF808B1FEF724FE13B000BD000030
:1016700040380240007000400548006840F47000A7
:10168000034908604FF000600149803908607047E5
:1016900088ED00E010B5FFF7A7FE0248FFF75AFCFF
:1016A00010BD00006C00002010B500F019FD0248CC
:1016B000FFF750FC10BD0000AC00002010B5026820
:1016C000294B98420ED0B0F1804F0BD0274B984257
:1016D00008D0274B984205D0264B984202D0264B83
:1016E000984203D122F070024B681A431E4B984275
:1016F00020D0B0F1804F1DD01C4B98421AD01C4B0B
:10170000984217D01B4B984214D01B4B984211D0D3
:101710001A4B98420ED01A4B98420BD0194B984254
:1017200008D0194B984205D0184B984202D0184B5C
:10173000984203D122F44072CB681A4322F080030E
:101740004C6943EA040202608B68C3620B688362DF
:10175000054B984202D0084B984201D10B690363B4
:101760000123436110BD000000000140000400405F
:1017700000080040000C004000040140004001400F
:10178000004401400048014000180040001C004097
:10179000002000402DE9F84F04462068006920F43D
:1017A0004050E1680843216808612169A068084346
:1017B00061690843E169084300902068C06849F204
:1017C0000C618843009908432168C860206840691B
:1017D00020F44070A169084321684861E069B0F5D0
:1017E000004F75D1E3492068884203D0E249206860
:1017F00088426FD1FFF71AF8814602206168A0FB8A
:1018000001510B461920A9FB00712A463846FEF704
:10181000D9FC6421B0FBF1F04FEA001A02206168A4
:10182000A0FB01510B461920A9FB00712A4638463E
:10183000FEF7C8FC074602206168A0FB01510B4679
:101840001920A9FB00B12A465846FEF7BBFC6421CB
:10185000B0FBF1F000EBC00101EB0010A7EB800042
:10186000322101EBC0006421B0FBF1F000F0F80080
:101870000AEB400A02206168A0FB01510B461920C7
:10188000A9FB00712A463846FEF79CFC0746022059
:101890006168A0FB01510B461920A9FB00B12A4643
:1018A0005846FEF78FFC6421B0FBF1F000EBC0015D
:1018B00001EB0010A7EB8000322101EBC000642196
:1018C000B0FBF1F000F007005044216888604FE160
:1018D0006EE0FFE7FEF79AFF814602206168A0FBF9
:1018E00001510B461920A9FB00712A463846FEF724
:1018F00069FC6421B0FBF1F04FEA001A0220616834
:10190000A0FB01510B461920A9FB00712A4638465D
:10191000FEF758FC074602206168A0FB01510B4608
:101920001920A9FB00B12A465846FEF74BFC64215A
:10193000B0FBF1F000EBC00101EB0010A7EB800061
:10194000322101EBC0006421B0FBF1F000F0F8009F
:101950000AEB400A02206168A0FB01510B461920E6
:10196000A9FB00712A463846FEF72CFC07460220E8
:101970006168A0FB015003461920A9FB00B12A466B
:101980005846FEF71FFC6421B0FBF1F000EBC001EC
:1019900001EB0010A7EB8000322101EBC0006421B5
:1019A000B0FBF1F000F00700504421688860DFE0F0
:1019B00070492068884203D06F49206888426BD103
:1019C000FEF734FF814604206168A0FB01510B46FD
:1019D0001920A9FB00712A463846FEF7F3FB824620
:1019E00004206168A0FB01510B461920A9FB00717E
:1019F0002A463846FEF7E6FB6421B0FBF1F000EB27
:101A0000C00101EB0010AAEB8000322101EB0010B5
:101A10006421B0FBF1F000F0F00A04206168A0FB43
:101A2000015003461920A9FB00712A463846FEF7EB
:101A3000C9FB6421B0FBF1F00AEB001A04206168D5
:101A4000A0FB01510B461920A9FB00712A4638461C
:101A5000FEF7B8FB074604206168A0FB015003466F
:101A60001920A9FB00B12A465846FEF7ABFB6421BA
:101A7000B0FBF1F000EBC00101EB0010A7EB800020
:101A8000322101EB00106421B0FBF1F000F00F00F7
:101A90005044216888606BE0FEF7B8FE8146042060
:101AA0006168A0FB015003461920A9FB00712A467A
:101AB0003846FEF787FB824604206168A0FB015090
:101AC00003461920A9FB00712A463846FEF77AFB27
:101AD0006421B0FBF1F000EBC00101EB0010AAEBB8
:101AE0008000322101EB00106421B0FBF1F000F026
:101AF000F00A04206168A0FB015003461920A9FBED
:101B000000712A463846FEF75DFB6421B0FBF1F018
:101B10000AEB001A04206168A0FB0170034619203B
:101B2000A9FB005001463A462846FEF74BFB074604
:101B300004206168A0FB015003461920A9FB00B1F5
:101B40002A465846FEF73EFB6421B0FBF1F000EB5D
:101B5000C00101EB0010A7EB8000322101EB001067
:101B60006421B0FBF1F000F00F0050442168886060
:101B7000BDE8F88F00100140001401402DE9F0414C
:101B800004460D4617469846069E21E0701CF8B1A3
:101B90002EB1FEF797FCA0EB0800B04218D92068E0
:101BA000C06820F4D0702168C8602068406920F0C7
:101BB000010021684861202084F8390084F83A0047
:101BC00000BF002084F8380000BF0320BDE8F0818A
:101BD000206800682840A84201D1012000E00020D0
:101BE000B842D3D00020F1E700BFFEE7014A024926
:101BF00000F02FB8751C000858000020024800684B
:101C0000C0F30220704700000CED00E010B5002882
:101C100004DB0A07130E054A135406E00A07140EE4
:101C2000034A00F00F031B1FD45410BD00E400E072
:101C300018ED00E002E008C8121F08C1002AFAD11E
:101C400070477047002001E001C1121F002AFBD13C
:101C500070472DE9F04116460F460446002503E083
:101C60003946B047641C6D1C20780028F8D12846FE
:101C7000BDE8F08138B504460D46E0B2009064231B
:101C8000012269460248FFF7BBFA204638BD000032
:101C9000EC00002010B501210248006800F0B1FB03
:101CA00010BD00000000002030B10023036101607E
:101CB000426083614361C3617047000010B5044610
:101CC000FFF772FB1E2202210248006800F0A4FB0D
:101CD00010BD000000000020FEF706FCFFF772FCBC
:101CE000FFF7DAFBFFF7FCFBFFF746FCFFF71EFCF4
:101CF000FFF7F4FA00F0FCF900F072FC0448FFF77B
:101D000013F90448FFF710F901E000F01AFBFCE7B3
:101D1000AC0000206C00002070B54468016801F040
:101D200007052DB1C91D21F0070105684D1B641B76
:101D30000B4683600026C6601919083921F0070197
:101D40000161002506697560066935601A468D1ABD
:101D500055600569156055688561556845614FF0A6
:101D60000045C56170BD30B5034603F1080000E0D1
:101D7000006804688C42FBD30246446814448C42D9
:101D800004D144684D682C44446001460A464C68BE
:101D900014440568AC420FD104681D69AC4208D0F8
:101DA0004C6805686D682C444C60046824680C60BD
:101DB00004E01C690C6001E004680C60884200D0FB
:101DC000016030BD2DE9F041054688461746287868
:101DD000414600F019F9064616B90020BDE8F08129
:101DE000701CA8BB00F052FA04460CB90020F5E7BD
:101DF00004EB4400214901EB8000A0F80280287820
:101E000004EB44011D4A02F8210004EB4400114692
:101E100001EB8000878004EB440001EB80008560CB
:101E20000846B0F90600401C38B94FF0FF3004EB0B
:101E3000440102EB8101C88007E01048C08804EB30
:101E400044010E4A02EB8101C8800C48C4800DE0B9
:101E5000FFE706EB4600094901EB80008088384423
:101E600006EB4601054A02EB8101888004480068C0
:101E7000401C034908600120B0E700002C0100204D
:101E8000200000202DE9F0470446884692469946F6
:101E9000002C34D0BAF1000F31D0B9F1000F2ED0A0
:101EA000D8F8006000270C21164800F073F90546A9
:101EB0000DB3C5F804A0A5F800900020A86001E0CB
:101EC0003746B66816B130884845F9DB04F108009A
:101ED000804506D0E06800B11FB9E068A860E56001
:101EE0000CE004F10C00804506D0A06800B11FB9D9
:101EF000A068A860A56001E0BD60AE6000BFBDE85D
:101F0000F087000034060020002001490860704777
:101F10004000002002463AB15088884204DB5088D5
:101F200088435080012070470020FCE7024632B110
:101F300088B220B1908888439080012070470020AB
:101F4000FCE700002DE9F04106460F4639463046D1
:101F500000F084F80546681C10B90020BDE8F08147
:101F600005EB4500194901EB8000807944B204EB90
:101F7000440001EB8000B0F90600401C40B94FF06E
:101F8000FF3005EB4501114A02EB8101C8800BE0EF
:101F900004EB44000D4901EB8000C08805EB4501CE
:101FA0000A4A02EB8101C8800848408A04EB4401D8
:101FB000064A02EB8101C88010464482044800684A
:101FC000401E034908600220C8E700002C010020E1
:101FD000200000202DE9F04106460C46354600273A
:101FE0000CE004F0010028B1686810B1304669685F
:101FF000884705E06410AD68781C87B2002CF0D1EA
:1020000000BF3846BDE8F08110B502460B461248C5
:10201000807941B21048408A08B9002010BD15E00F
:1020200001EB41000C4C14F82000904207D101EB69
:10203000410004EB80004088984200D109E001EBA8
:102040004100054C04EB8000807941B2481C002817
:10205000E6D100BF0846E1E72C01002030B502467A
:102060000B461B48807941B201EB4100184D15F831
:102070002000904209D101EB410005EB800040882F
:10208000984202D10021084630BD002416E001EB41
:1020900041000F4D15F82000904207D101EB41009F
:1020A00005EB80004088984200D10AE00C4601EB25
:1020B0004100074D05EB8000807941B2481C0028A3
:1020C000E5D100BF481C08B94FF0FF342046DBE7DC
:1020D0002C010020014800687047000040000020EB
:1020E00002480068401C0149086070474000002019
:1020F00010B500F0BFF94FF4806203490348FFF7C1
:10210000D3FD00F005F810BD340200203406002095
:1021100010B510210C4800F03DF80C4908600C493E
:1021200008600846006868B100200968088008490E
:102130000968886006490968486005490968C860F7
:10214000052010BD0420FCE7340600201C00002000
:102150001800002000B50748006807490968884250
:1021600007D005480068C3681988586800F03EF930
:1021700000BF00BD180000201C00002070B50646FE
:102180000C4615462B46224606F108013046FFF75D
:1021900079FE70BD2DE9F04706460C464FF0000968
:1021A000306910B93046FFF7B7FDF06920400028CC
:1021B00053D18CB1083404F0070068B104F0070073
:1021C000C0F10800044404F0070008B9012000E051
:1021D000002008B900BFFEE7002C3ED07069A04285
:1021E0003BD306F10807B56801E02F462D68686803
:1021F000A04202D228680028F7D13069A8422CD02A
:10220000386800F10809286838606868001B1028E1
:1022100013D905EB040808F0070008B9012000E015
:10222000002008B900BFFEE76868001BC8F804007A
:102230006C6041463046FFF796FD70696968401A48
:102240007061D6E90501884201D27069B0616868A1
:10225000F169084368600020286009F0070008B9A8
:10226000012000E0002008B900BFFEE74846BDE8B5
:10227000F08770B506460C4615462B46224606F1F9
:102280000C013046FFF7FEFD70BD00000648B0F9B6
:10229000121039B101EB4100034A02EB8000C28801
:1022A0000148428248B270472C01002070B50546B3
:1022B0001A4E002D30D018211948FFF76BFF044645
:1022C000002C28D00022257000206080A080A06013
:1022D000E060606120612078124B1B78984203DA3D
:1022E0002078104B187000E000BF314600E04969CB
:1022F000486920B120784B691B789842F7DD4A691C
:1023000012B94C61216104E0486960612161146186
:102310004C61204670BD00BF0020FBE72800002074
:10232000340600202400002070B504460D462946DE
:102330002046FFF707FE06460EB1012070BD0020C3
:10234000FCE700BF00F002F8FCE7000010B5FFF763
:10235000C1FE164908601648006800F0A3F8154849
:10236000446900E0646924B1608810B9A08800283D
:10237000F8D014B1204600F01FF8FFF7EBFEFFF78E
:10238000A9FE0A490968401A0949086006E0FFF7F2
:10239000A1FE06490968401A05490860044800681A
:1023A0000028F4D0FFF7B0FD10BD00004800002069
:1023B000440000202800002070B504460025A188B4
:1023C000E068FFF707FE05460120A84081B22046DD
:1023D000FFF7ACFD6188A068FFF7FCFD0546012012
:1023E000A84081B22046FFF795FD70BD024632B18C
:1023F00088B220B1508808435080012070470020E7
:10240000FCE7024632B188B220B190880843908040
:10241000012070470020FCE72DE9F04104460D46FD
:1024200016465CB1324629462046FFF7CBFC0746EC
:1024300017B10120BDE8F0810020FBE70020F9E79B
:1024400070B504460D4624B12078A21C294600F040
:1024500001F870BD70B506460D4614462088284028
:1024600018B120886840208003E029463046FFF7F5
:102470005BFF70BD012008E0411C09B200EB400287
:10248000074B03EB8202D180401C1528F4DB4FF090
:10249000FF300349C88000210148A0F802117047AD
:1024A0002C01002070B506463048B0F90600401CEB
:1024B00000285AD02D48807944B253E0002504EB1F
:1024C00044002A4901EB80008088B04207D80020F0
:1024D00004EB4401254A02EB810188800CE004EB07
:1024E0004400224901EB80008088801B04EB4401FA
:1024F0001E4A02EB8101888004EB44001B4901EB7A
:102500008000808828B104EB440001EB8000408803
:1025100000B9254604EB4400144901EB80008079A2
:1025200044B2F5B105EB450001EB8000808860B94D
:1025300005EB45020B4603EB8202518805EB450291
:1025400003EB82029068FFF751FF05EB4502074B52
:1025500003EB8202518805EB450213F82200FFF7D6
:10256000F1FC00BF601C0028A8D170BD2C01002028
:1025700010B5044605A0FFF739FB4FF47A7201212C
:1025800006480068FFF748FF10BD000074686973D3
:10259000206973206120746573740A0000000020B4
:1025A00010B5044604A0FFF721FB01210B48006889
:1025B000FFF746FF10BD000073746F7020746173E5
:1025C0006B3148616E646C657220544553545F47AB
:1025D000454E5F4556454E54200A0000000000203D
:1025E00010B50120FFF762FE0F49086001220F4974
:1025F0000D480068FFF7C2FD02220D490A48006835
:10260000FFF7BCFD01220B4907480068FFF731FEC8
:10261000012105480068FFF7E9FE02210248006831
:10262000FFF7E4FE10BD0000000000207125000847
:10263000BD1C0008A12500080000000000000000EB
:102640000102030406070809000000000102030458
:1026500070260008000000205C000000341C000808
:10266000CC2600085C000020FC090000441C000887
:10267000000000000101010101020304FFFFFFFF50
:10268000010101010024F40000000000000000002E
:1026900000000000FF000000FF000000000000003C
:1026A000000000000000000000000000000000002A
:1026B000000000000000000000000000000000001A
:0C26C000100000000100000000000000FD
:040000050800018965
:00000001FF
